:10000000CFC00000E9C00000E7C00000E5C000006C
:10001000E3C00000E1C00000DFC00000DDC0000060
:10002000DBC00000D9C000000C949F11D5C00000B7
:10003000D3C00000D1C00000CFC00000CDC0000080
:10004000CBC00000DAC10000C7C00000C5C000007E
:10005000C3C00000C1C00000BFC00000BDC00000A0
:10006000BBC00000B9C00000B7C00000B5C00000B0
:10007000B3C00000B1C00000AFC00000ADC00000C0
:10008000ABC00000A9C00000A7C00000A5C00000D0
:10009000A3C00000A1C000009FC000009DC00000E0
:1000A0009BC0000099C0000097C0000018034100E9
:1000B0006C0070006800610053007000680065000B
:1000C00072006500000014036E00750020006400DB
:1000D0006500730069006E006500000004030904F8
:1000E00009028D00030100C0FA080B0002010100A3
:1000F00000090400000001010000092401000109B9
:1001000000010109040100020103000007240100AD
:100110000141000624020101000624020202000936
:100120002403010301020100092403020401010167
:100130000009050102400001000005250101010937
:1001400005820240000100000525010103090402A7
:100150000002030000000921110100012220000714
:10016000058303400001070504034000011201005C
:1001700002EF020108501D216002010102DC0106AC
:1001800000FF0901A1010902150025FF75089580EE
:1001900081020903150025FF7508957F9102C000B3
:1001A00011241FBECFEFDAE0DEBFCDBF11E0A0E02B
:1001B000B1E0E4EEFEE202C005900D92A038B10776
:1001C000D9F714E0A0E8B1E001C01D92A031B10759
:1001D000E1F7B5D10C94701713CFF894909180018A
:1001E0007894883278F49923E1F0809196038823FB
:1001F00021F080915C038823A1F48FE99FE00197AF
:10020000F1F713C0992369F080919603882321F0B8
:1002100080915C03882329F48FE39FE10197F1F734
:1002200004C08FEA94E00197F1F700C00000089540
:100230002F923F924F925F926F927F928F929F92F6
:10024000AF92BF92CF92DF92EF92FF920F931F93E4
:10025000CF93DF9399E8E92E91E0F92E27E9A22EBA
:1002600023E0B22E3EEC832E31E0932E49ECC42ED7
:1002700042E0D42E00E010E05DEE252E50E0352E59
:1002800069E6662E712C78E7472E512CD7011C9217
:10029000D02F802F0E94F30CC801F1010995F501C0
:1002A000119211925F01C0E08C2FBFD6C801F101FD
:1002B00009958CE260E090D622273327281B390B62
:1002C000FEEF21373F077CF0D701CC9308301105B2
:1002D00014F4F20101C0F301E81BF90BD6011196E9
:1002E000FC93EE9303C0CF5FC034F1F6F401D193D9
:1002F0004F010F5F1F4F0894E11CF11C22E030E01A
:10030000C20ED31E0832110509F0C0CF05E812E075
:1003100086EFE82E81E0F82EC8E2D0E08C2F0E9414
:10032000F30CCE015ADF84E060E056D68897D801FE
:100330008D939D938D01F701C1937F012196C03369
:10034000D10561F747E21FC0252F30E0C9010197B1
:10035000DC01A757BE4F6C91F901E757FE4F708142
:10036000761760F47C936083DC01A253BE4F8C91BE
:10037000F901E253FE4F90819C9380835F5F4517A4
:1003800018F7415011F051E0DFCF0E947E0E86E356
:10039000EFEFF1E0DF011D928A95E9F780E3E3E6F4
:1003A000F3E0DF01282F1D922A95E9F7EBE2F3E055
:1003B000DF01282F1D922A95E9F7E5E9F2E0DF0138
:1003C0001D928A95E9F780E6E7E9F3E0DF011D92E7
:1003D0008A95E9F7DF91CF911F910F91FF90EF90F0
:1003E000DF90CF90BF90AF909F908F907F906F9055
:1003F0005F904F903F902F9008951F920F920FB6ED
:100400000F9211242F933F934F935F936F937F939A
:100410008F939F93AF93BF93EF93FF93EFEFF1E031
:1004200080E090E020E03191232B01968633910506
:10043000D1F7222329F580918101909182010196C3
:1004400090938201809381012EE48132920774F1AE
:10045000109282011092810180918001882331F5F0
:10046000E9ECF2E0808191818C599F4F81939193C7
:1004700083E0E932F807B1F781E08093800116C08C
:1004800080918001882371F0E9ECF2E08081918114
:10049000845690408193919323E0E932F207B1F7BB
:1004A0001092800110928201109281010E94E10D50
:1004B0000E94360F0E943615FF91EF91BF91AF91C8
:1004C0009F918F917F916F915F914F913F912F916C
:1004D0000F900FBE0F901F90189584B7877F84BF31
:1004E00088E10FB6F89480936000109260000FBE10
:1004F00090E080E80FB6F8948093610090936100DB
:100500000FBE0E9487110E94E60C0E94F50A50D58A
:10051000A5D50E945A0D0E941010729AE1E8F0E0F1
:10052000808188608083AFE6B0E08C9182608C939C
:100530008AEF809388008081836080830895CF93C1
:10054000DF93CDB7DEB7CE56D0400FB6F894DEBFFE
:100550000FBECDBF8E010F5F1F4F80E6D8011D92E9
:100560008A95E9F7BADF80E090E060E070E04FEF55
:1005700053E050D685E00E94F30C85E060E070E027
:100580000E94131055DE7894AB961FAE1EAEAB974B
:1005900008C0A3962EAD3FADA397AB963FAF2EAF4D
:1005A000AB978EEC91E0AF969FAF8EAFAF97A9E877
:1005B000B1E0AD96BFAFAEAFAD97CC24A3961FAE62
:1005C0001EAEA397AF96EEADFFADAF97D190AF96AD
:1005D000FFAFEEAFAF9762990BC0F1E0F09334023A
:1005E000F8941092800124DE7894629BFECF02C0C2
:1005F00010923402AD96AEADBFADAD978D91AD9674
:10060000BFAFAEAFAD9711D5F89400E01D2D187FA8
:10061000802F812B0E94F30C802F6FE272E00E94EA
:1006200013100F5F0530A1F778948D2D0E94F30C05
:100630008D2DD3DDB7E2BD1508F413C18CE260E067
:10064000CBD4AD2CBB2400271127081B190B950117
:10065000220F331F59EC252E52E0352E220E331E69
:10066000F10180819181081B190B65E9862E62E0FA
:10067000962E8A0C9B1CD4018C91101611060CF03E
:10068000A9C0882309F049C0780108EC10E08CE289
:1006900060E0A2D4909581959F4FF1012081318136
:1006A000821B930BE816F9060CF47C0101501040F4
:1006B00071F78701159507950038110514F00FE7BC
:1006C00010E0F8948D2DB801402F0E94340EF501F2
:1006D000E150FE4F21E020837894D4012C93C50192
:1006E000880F991FFC01E956FC4F11830083A396E4
:1006F000EEADFFADA397E00FF11FA396FFAFEEAFF6
:10070000A397FC01E753FD4F2FE0808191812D15C8
:1007100010F08397A3C04997A1C057E9E52E53E095
:10072000F52EE20EF31ED7016D917C91882777FD9F
:100730008095982F0E94521620E030E040E05FE361
:100740000E94E2162B013C01B801882777FD8095B5
:10075000982F0E94521620E030E040E05FE30E94B4
:10076000E2169B01AC01C301B2010E9453150E9425
:100770001F16DC01CB01F70191838083F1E08F3FED
:100780009F07BCF0EFEFF1E0D7011196FC93EE93D9
:10079000F501ED59FC4F8081882359F4F894D1017B
:1007A0008D919C911197C2968D939C93B1E0B083EB
:1007B0007894F8948501000F111F09561C4FF80119
:1007C000608171818D2D0E94520EF501E150FE4F26
:1007D00021E0B8C0882309F4DAC0F894A5014D5986
:1007E0005C4FFA0180818823C9F0E1E0F0E0EC0F72
:1007F000FD1FE20FF31F8081918101969183808319
:100800008B30910558F0D1018D919C911197C29731
:100810008D939C93DA011C92118210828D2D60E0E1
:1008200070E040E00E94340EF501E150FE4F10826E
:100830007894F4011082C501880F991FFFE0FD151F
:1008400038F0FC01E753FD4F80819181839606C00B
:10085000FC01E753FD4F808191814996918380830C
:1008600096C06D2C77245301AA0CBB1C85010B5C30
:100870001D4FD801ED90FC9084E060E0ADD3E81A04
:10088000F90AF301E55DFC4F2FEF422E21E0522ED5
:10089000460C571C80811E141F040CF064C0882372
:1008A00049F4D8018D919C9111970A968D939C9350
:1008B000B1E0B083F894850109561C4FF8016081BE
:1008C0007181882777FD8095982F0E94521620E02D
:1008D00030E040E05FE30E94E2164B015C01B701AB
:1008E000660F771F882777FD8095982F0E945216F4
:1008F00020E030E040E05FE30E94E2169B01AC01A3
:10090000C501B4010E9453150E941F16DC01CB01E2
:10091000F80191838083F1E08F3F9F072CF0EFEF88
:10092000F1E0D801ED93FC938301000F111F0956EC
:100930001C4FD8016D917C918D2D4FE70E94340E94
:1009400021E0F20120837894D8018D919C91119738
:10095000A396EEADFFADA397E80FF91FA396FFAFE7
:10096000EEAFA39714C0882341F0D8018D919C91DC
:1009700011970A978D939C931082F8948D2D60E0C7
:1009800070E040E00E94340EF20110827894C3942B
:10099000F0E3CF1609F016CEA3964EAC5FACA3974A
:1009A0008091FE01882309F03DC28091880188234F
:1009B00009F44AC28091BB01882309F446C141145D
:1009C000510461F0440C551C21E030E0422A532AC6
:1009D00030E0431634E0530608F08BC00091BC01B0
:1009E0001091BD016090BE017090BF012090C001C8
:1009F0003090C101AB968EAD9FADAB97009709F4D7
:100A00006BC0B20180E090E00E9450164B015C0187
:100A1000B80180E090E00E9450166B017C0180914B
:100A2000C2019091C301081B190BB801882777FDFB
:100A30008095982F0E94521620E030EC4FE754E446
:100A40000E94B7159B01AC01C501B4010E94E216DA
:100A50009B01AC01C701B6010E9452150E942416E9
:100A6000A5967FAF6EAFA597B30180E090E00E949E
:100A700050166B017C018091C4019091C501B301B6
:100A8000681B790B882777FD8095982F0E94521656
:100A900020E030EC4FE754E40E94B7159B01AC0115
:100AA000C501B4010E94E2169B01AC01C701B60169
:100AB0000E9452150E942416A7967FAF6EAFA7978B
:100AC000B10180E090E00E9450166B017C018091A2
:100AD000C6019091C70197C0A5961FAF0EAFA5970D
:100AE000A7967FAE6EAEA797A9963FAE2EAEA997FA
:100AF000C4C0A2E0BCEF4A0E5B1EB0E04B16B4E0EF
:100B00005B0620F0EFEF4E2EE3E05E2EAB96EEADEF
:100B1000FFADAB97309709F4B0C00091C2011091BE
:100B2000C3016090C4017090C5012090C60130904F
:100B3000C701B20180E090E00E9450164B015C01B9
:100B4000B80180E090E00E9450166B017C0180911A
:100B5000C8019091C901081B190BB801882777FDBE
:100B60008095982F0E94521620E030EC4FE754E415
:100B70000E94B7159B01AC01C501B4010E94E216A9
:100B80009B01AC01C701B6010E9452150E942416B8
:100B9000A5967FAF6EAFA597B30180E090E00E946D
:100BA00050166B017C018091CA019091CB01B30179
:100BB000681B790B882777FD8095982F0E94521625
:100BC00020E030EC4FE754E40E94B7159B01AC01E4
:100BD000C501B4010E94E2169B01AC01C701B60138
:100BE0000E9452150E942416A7967FAF6EAFA7975A
:100BF000B10180E090E00E9450166B017C01809171
:100C0000CC019091CD01B101681B790B882777FD4C
:100C10008095982F0E94521620E030EC4FE754E464
:100C20000E94B7159B01AC01C501B4010E94E216F8
:100C30009B01AC01C701B6010E9452150E94241607
:100C4000A9967FAF6EAFA99718C02091BC013091D3
:100C5000BD01A5963FAF2EAFA5978091BE019091A3
:100C6000BF01A7969FAF8EAFA797A091C001B0918B
:100C7000C101A996BFAFAEAFA99780919603882313
:100C800009F4BEC080915C03882309F4B9C0F894CC
:100C90008090950318140CF06AC0682D772767FDC3
:100CA0007095872F972F0E94521620E030E048EC75
:100CB00052E40E94B715E62ED72EC82EA92EA5966F
:100CC000EEADFFADA597BF0180E090E00E94501609
:100CD0000E2D1D2D2C2D3A2DA90198010E94E216F2
:100CE000462F572F682F792FCB01BA010E94241667
:100CF000A5967FAF6EAFA597A7962EAD3FADA797F0
:100D0000B90180E090E00E9450160E2D1D2D2C2D73
:100D10003A2DA90198010E94E216462F572F682FFD
:100D2000792FCB01BA010E942416DC01CB01A796D2
:100D30009FAF8EAFA797A996AEADBFADA997BD01E6
:100D400080E090E00E9450162C2D3A2DA9019801C8
:100D50000E94E216462F572F682F792FCB01BA0138
:100D60000E942416A9967FAF6EAFA9970CC0A996D2
:100D70001FAE1EAEA997A7961FAE1EAEA797A5964B
:100D80001FAE1EAEA59780915C038130E9F4682DFB
:100D9000772767FD7095872F972F0E9452166B015A
:100DA0007C016091290370912A0380E090E00E9409
:100DB000501620E030E048EC51E40E94B7159B014A
:100DC000AC01C701B60115C08230C9F460915B0364
:100DD00070E080E090E00E94521620E030E040E9B0
:100DE00050E40E94E2169B01AC0160E070E088ECE8
:100DF00092E40E9452150E941F1660939503789406
:100E0000A5968EAD9FADA597A7966EAD7FADA79722
:100E1000A9964EAD5FADA997FDD1AB965FAE4EAE34
:100E2000AB97BFCB813009F0B4CBF89460915F03EE
:100E300070916003409161035091620380915D0362
:100E400090915E03E7D17894A396EEADFFADA397A2
:100E5000AB96FFAFEEAFAB97A4CB0895089583E0B8
:100E600061EC42E30E94BE1084E060EC42E30E9429
:100E7000BE1082E061E842E30E94BE1081E060E8BB
:100E800042E30C94BE100895933089F0943028F416
:100E9000913049F1923061F505C09132D1F0923232
:100EA00039F51CC08DE890E0E0EEF0E025C081301F
:100EB00041F0813018F08230D9F406C0ECEDF0E05A
:100EC00005C0E6ECF0E002C0ECEAF0E0849190E0CE
:100ED00013C089E090E0E6E5F1E00EC080E290E02A
:100EE000EFE7F1E009C082E190E0EDE6F1E004C057
:100EF00080E090E0E0E0F0E0DA011196FC93EE9300
:100F0000089590917C009F7390937C00882319F042
:100F1000813061F406C080917C00806C80937C00FD
:100F2000089580917C00806480937C000895909166
:100F3000FB03891721F190917C00907E90937C00B7
:100F400090917B009F7D90937B0020917C00962F59
:100F5000982B9F71922B90937C0020917B00982F6F
:100F60009072922B90937B006093FC038093FB0321
:100F70008FEC97E00197F1F700C000000895809191
:100F8000FC036817A1F080917C008C7F80937C002B
:100F900090917C00862F8370892B80937C006093D6
:100FA000FC038FEC97E00197F1F700C00000089573
:100FB000EAE7F0E0808183688083EBE7F0E08081FE
:100FC0008068808380E09DDF81E08093FC038093D4
:100FD000FB0380E060E0ABCFCF93C82FA8DF809108
:100FE0007A00806480937A0080917A0086FDFCCF3D
:100FF0004091780080917900C07379F0982F969590
:1010000061F090E081709070982F8827242F30E055
:10101000822B932B8F5F914006C0382F20E0842FC6
:1010200090E0822B932BCF91089525B1982F969520
:1010300096959F70207F922B95B991B3282F269576
:1010400021709E7D292B90E08170907035E0880F93
:10105000991F3A95E1F7282B21BB089584B18F6041
:1010600084B980B3816280BB80E0DFCFF894809147
:1010700093039091940381309105C1F48091FD0315
:101080009091FE039093BA018093B9018091FF0380
:10109000909100049093FA038093F90380910104E6
:1010A000909102049093F8038093F70378948091D1
:1010B000930390919403AA2797FDA095BA2F83706C
:1010C0009070A070B0702AE0880F991FAA1FBB1FF4
:1010D0002A95D1F74091F7035091F803662757FD01
:1010E0006095762F537060707070842B952BA62BB3
:1010F000B72B3AE0880F991FAA1FBB1F3A95D1F76B
:101100004091B9015091BA01662757FD6095762F3D
:10111000537060707070842B952BA62BB72BEAE070
:10112000880F991FAA1FBB1FEA95D1F74091F903B9
:101130005091FA03662757FD6095762F53706070C3
:101140007070842B952BA62BB72B8093C5029093A0
:10115000C602A093C702B093C8022FE130E080918D
:10116000C5029091C602A091C702B091C802022E9A
:1011700004C0B695A795979587950A94D2F7817084
:101180009070009711F08F9A01C08F98479A4798F6
:10119000215030408FEF2F3F380709F7089585E041
:1011A0008A95F1F70000769A469A85E08A95F1F7DC
:1011B0000000469876980895FC01109294031092CE
:1011C0009303808191819093BA018093B9018281C8
:1011D00093819093FA038093F9038481958190938E
:1011E000F8038093F70342DFDADF81E090E0909329
:1011F0009403809393033ADFD2CF9093FE038093BE
:10120000FD03709300046093FF0350930204409326
:1012100001040895CF93DF9300D000D000D0CDB764
:10122000DEB79A8389837C836B835E834D83CE0193
:101230000196C2DF26960FB6F894DEBF0FBECDBF73
:10124000DF91CF910895809388019091FE019923B9
:10125000B1F4882339F480E090E060E070E040E091
:1012600050E0D8CF6091BE017091BF014091C001A4
:101270005091C1018091BC019091BD01CBCF0895E7
:101280008093BB019091FE01992399F4882389F4FE
:1012900080918801813069F46091BE017091BF0135
:1012A0004091C0015091C1018091BC019091BD015C
:1012B000B1CF08952F923F924F925F926F927F929B
:1012C0008F929F92AF92BF92CF92DF92EF92FF9256
:1012D0000F931F93CF93DF93CDB7DEB727970FB64A
:1012E000F894DEBF0FBECDBF8D83F42E022F70E0C9
:1012F00080E090E00E94501620E030EC4FE754E48C
:101300000E94E21620E030E04FE753E40E94B71558
:10131000D62EC72EB82EA92E6F2D70E080E090E05B
:101320000E94501620E030EC4FE754E40E94E21691
:1013300020E030E04FE753E40E94B715962E872E49
:10134000782E692E602F70E080E090E00E945016A9
:1013500020E030EC4FE754E40E94E21620E030E059
:101360004FE753E40E94B715562E472E382E292EEC
:10137000A6019501852F942FA32FB22FBC01CD017B
:10138000F401A3010F2F1E2F252F342FA90198013F
:101390000E945315F201A1010F2F1E2F252F342F6C
:1013A000A90198010E9453156F837E83F82EE92EC0
:1013B000472F9701862F942FA32FB22FBC01CD0169
:1013C00020E030EC4FE754E40E94DE1618160CF0D3
:1013D000BAC05F814E819701852F942FA32FB22F22
:1013E000BC01CD0120E030EC4FE754E40E945215DF
:1013F0000E941F16882777FD8095982F0E9452160D
:1014000069837A838B839C83A6019501852F942F12
:10141000A32FB22FBC01CD01FF81EE81A7010F2FB9
:101420001E2F252F342FA90198010E94B7159B016B
:10143000AC0169817A818B819C810E94E216F62F32
:10144000E72F382F292FD601C5014B2F5A2F692F8F
:10145000782FCB01BA01DF01A9010B2F1A2F252FFD
:10146000342FA90198010E945215D62EC72EB82EEE
:10147000A92EA4019301852F942FA32FB22FBC0175
:10148000CD01FF81EE81A7010F2F1E2F252F342FB5
:10149000A90198010E94B7159B01AC0169817A816D
:1014A0008B819C810E94E216F62FE72F382F292F7F
:1014B000D401C3014B2F5A2F692F782FCB01BA01CA
:1014C000DF01A9010B2F1A2F252F342FA901980115
:1014D0000E945215962E872E782E692EA201910118
:1014E000852F942FA32FB22FBC01CD01FF81EE8158
:1014F000A7010F2F1E2F252F342FA90198010E941D
:10150000B7159B01AC0169817A818B819C810E9416
:10151000E216F62FE72F382F292FD201C1014B2FCA
:101520005A2F692F782FCB01BA01DF01A9010B2FA8
:101530001A2F252F342FA90198010E945215562EDB
:10154000472E382E292E2D81822F90E08C01000FFE
:10155000111F080F191F000F111F04541E4FA60161
:101560009501852F9C2DA32FBA2DBC01CD010E9482
:101570002416DC01CB01F80191838083A40193013F
:10158000852F982DA32FB62DBC01CD010E942416C6
:10159000DC01CB01F80193838283A2019101852FA5
:1015A000942DA32FB22DBC01CD010E942416DC0185
:1015B000CB01F8019583848327960FB6F894DEBF9C
:1015C0000FBECDBFDF91CF911F910F91FF90EF9094
:1015D000DF90CF90BF90AF909F908F907F906F9053
:1015E0005F904F903F902F9008953F9A3E9A6E9A49
:1015F000879A8EB18F6B8EB988B18F6B88B981E075
:101600008093BB018093880110925C031092960333
:101610001092FE0184E68093950388E790E0909312
:101620002A03809329038FE790E06FE770E04FE78C
:1016300050E0E3DD10925E0310925D0310926003B0
:1016400010925F03109262031092610380E060E0E9
:1016500040E02FEF2FDE81E060E04FEF20E02ADE58
:1016600082E06FEF40E020E025CE2F923F924F9234
:101670005F926F927F928F929F92AF92BF92CF9222
:10168000DF92EF92FF920F931F93CF93DF9300D0DF
:1016900000D000D0CDB7DEB7082FF62E60915D03E5
:1016A00070915E0380E090E00E945016962E872E87
:1016B000382E292E60915F037091600380E090E0E6
:1016C0000E9450166E837D83782E692E609161038F
:1016D0007091620380E090E00E945016B62EA72E13
:1016E000582E492E6F2D70E080E090E0002399F491
:1016F0000E94501620E030EC4FE754E40E94E216BE
:1017000020E030E04EEF52E40E94B715962E872E6F
:10171000382E292E27C0013099F40E94501620E05F
:1017200030EC4FE754E40E94E21620E030E04EEF48
:1017300052E40E94B7156E837D83782E692E12C005
:101740000E94501620E030EC4FE754E40E94E2166D
:1017500020E030E04EEF52E40E94B715B62EA72EDF
:10176000582E492EA4019101852F982DA32FB22D1B
:10177000BC01CD01FE81ED81A3010F2F1E2F252F6E
:10178000362DA90198010E945315F501A2010F2FD2
:101790001A2D252F342DA90198010E945315F62EDC
:1017A000E72ED82EC92EA7019601852F942FA32F9F
:1017B000B22FBC01CD0120E030EC4FE754E40E9491
:1017C000DE1618160CF0B8C0A7019601852F942FCD
:1017D000A32FB22FBC01CD0120E030EC4FE754E441
:1017E0000E9452150E941F16882777FD8095982F1A
:1017F0000E94521669837A838B839C83A401910192
:10180000852F982DA32FB22DBC01CD01F701A60184
:101810000F2F1E2F252F342FA90198010E94B715D5
:101820009B01AC0169817A818B819C810E94E216C7
:10183000F62FE72F382F292FD401C1014B2F582D18
:10184000692F722DCB01BA01DF01A9010B2F1A2FCD
:10185000252F342FA90198010E945215962E872E0C
:10186000382E292E5E814D819301852F942FA32F31
:10187000B62DBC01CD01F701A6010F2F1E2F252F7C
:10188000342FA90198010E94B7159B01AC01698111
:101890007A818B819C810E94E216F62FE72F382FE8
:1018A000292FBE81AD81C3014B2F5A2F692F762D71
:1018B000CB01BA01DF01A9010B2F1A2F252F342FDD
:1018C000A90198010E9452156E837D83782E692E9E
:1018D000A5019201852F9A2DA32FB42DBC01CD0116
:1018E000F701A6010F2F1E2F252F342FA9019801D4
:1018F0000E94B7159B01AC0169817A818B819C8123
:101900000E94E216F62FE72F382F292FD501C201AA
:101910004B2F5A2D692F742DCB01BA01DF01A9017C
:101920000B2F1A2F252F342FA90198010E94521531
:10193000B62EA72E582E492EA4019101852F982D41
:10194000A32FB22DBC01CD010E942416DC01CB01D6
:1019500090935E0380935D035E814D819301852F9B
:10196000942FA32FB62DBC01CD010E942416DC01BB
:10197000CB019093600380935F03A5019201852FB3
:101980009A2DA32FB42DBC01CD010E942416DC0199
:10199000CB01909362038093610326960FB6F8946F
:1019A000DEBF0FBECDBFDF91CF911F910F91FF9092
:1019B000EF90DF90CF90BF90AF909F908F907F90EF
:1019C0006F905F904F903F902F900895869A8AB1C4
:1019D000846B8AB984B1806F84B98E9A5F9A85B11D
:1019E000806F85B908959BB19B7C9BB99BB1282FD3
:1019F00030E021703070220F331F220F331F922BE3
:101A0000282F269530E02170307054E0220F331FCC
:101A10005A95E1F7922B282F2695269530E02170D4
:101A2000307065E0220F331F6A95E1F7922B9BB966
:101A300086958695869521E030E002C0220F331FFF
:101A40008A95E2F78E9A5F9A85B1806F85B991B3D6
:101A5000822F8295880F880F807C8095892381BB97
:101A60009BB1822F869587958827879580958923B6
:101A70008BB935B1822F8695869586958295880F8C
:101A8000807E922F969596959295907F982B822F97
:101A900082958F708295880F880F807C892B229584
:101AA00026952770279522272795282B20952323D5
:101AB00025B90895E9ECF0E0808188608083109278
:101AC000CD008FE18093CC0010925B030895CF93FB
:101AD000DF9300D000D0CDB7DEB7FC018181228139
:101AE0009381309107043430C1F432E03093E9003F
:101AF000882399F0382F32953F7039838A832B835E
:101B00009C83CE01019664E070E040E050E0DDD4BB
:101B10008091E8008E778093E8000F900F900F90EF
:101B20000F90DF91CF9108950F931F93CF93DF9381
:101B30000F92CDB7DEB7FC0100811181628169830C
:101B40000CD280915C0369818130E1F0802F8A5F43
:101B5000823020F482E080935C030EC00C3F19F4C5
:101B600010925C0328C0083F69F480915B038F5F8B
:101B700080935B038831F8F084E68093950310929C
:101B80005B0319C00F3BB9F4143149F4662319F40F
:101B90001092FE0110C081E08093FE010CC015314F
:101BA00011F480E007C0163111F481E003C0173151
:101BB00011F482E05ADD0F90DF91CF911F910F91C8
:101BC0000895CF93DF93CDB7DEB727970FB6F8947C
:101BD000DEBF0FBECDBF81E08093E9008091E800B9
:101BE00082FF20C0CE01049664E070E040E050E047
:101BF000BCD48D8189838E818A838F818B83CE0132
:101C0000019692DF9091F3008091F200392F20E04D
:101C100090E0822B932B009729F48091E8008B773A
:101C20008093E80027960FB6F894DEBF0FBECDBFB5
:101C3000DF91CF9108959091C80095FFFCCF8093DC
:101C4000CE000895CF93DF93FC018181D281C381BF
:101C50009091C80095FFFCCFEEDF8D2FECDF8C2F2D
:101C6000EADFDF91CF910895282F30E0F901EE0FE0
:101C7000FF1F31964F77CB019695982F8827979520
:101C80008795482B80E091E0E80FF91F40832F5F94
:101C90003F4F220F331F75956795280F391FF901A4
:101CA00060830895282F30E0F901EE0FFF1F319671
:101CB00040E051E0E40FF51F80818F778083A081A1
:101CC000CB019695982F882797958795A82BA08369
:101CD0002F5F3F4F220F331F75956795240F351FD8
:101CE000F90160830895809361010895E82FF0E081
:101CF000EE59FE4F8081860F8083089581E091E048
:101D000060E070E04FE550E00C9469174F925F92ED
:101D10006F927F928F929F92AF92BF92CF92DF92FB
:101D2000EF92FF920F931F93CF93DF9300D000D0D9
:101D3000CDB7DEB7FC018081813009F082C04180DF
:101D40005524B3E0EB2EF12CEE0EFF1E8F010C5F3D
:101D50001F4F85E0C82ED12CCE0EDF1EAA24BB2437
:101D60009924939494E6892E68C0F8013297908163
:101D7000992389F41982F70180818A83F80180818F
:101D80008B83F60180818C83CE010196A0DECE018B
:101D9000019658DF47C09130E1F4F701808181302E
:101DA00021F4F80180814FDA3DC0823021F4F8013E
:101DB000808166DA37C0833029F4F801808180930E
:101DC000960330C0843071F5F80180818093FE0164
:101DD00029C0892F8250833040F4F7016081F801D7
:101DE0004081F601208166DA1DC09530D9F48091DA
:101DF0005C038230B9F0F7018081882319F41092D6
:101E00005C0304C090925C0380929503F80180818A
:101E1000F601708066249301280F311D30932A0348
:101E2000209329030894A11CB11C84E090E0E80EE3
:101E3000F91E0C5F1F4FC80ED91EA414B5040CF474
:101E400094CF0F900F900F900F90DF91CF911F9133
:101E50000F91FF90EF90DF90CF90BF90AF909F9049
:101E60008F907F906F905F904F900895CF93DF9306
:101E7000CDB7DEB7CF57D0400FB6F894DEBF0FBE58
:101E8000CDBF80910704843009F05DC083E080936A
:101E9000E9008091E80080FF3CC040918401242F3C
:101EA00030E056E0220F331F5A95E1F7DE0111961C
:101EB00080E090E0FC01E20FF31FE050FF4F508103
:101EC0005D93019680349105A9F7442391F0109217
:101ED0006201109263011092610184E690E0FC01BE
:101EE000E050FF4F1082019687379105C1F710929D
:101EF000830181E0842780938401CE01019660E410
:101F000070E040E050E0E1D28091E8008E7780936D
:101F1000E80084E08093E9008091E80082FF13C02C
:101F20008091E80085FF0AC0CE0101966FE770E05E
:101F300040E050E01AD3CE010196E8DE8091E8003F
:101F40008B778093E800C158DF4F0FB6F894DEBF5F
:101F50000FBECDBFDF91CF910895FC014091830169
:101F60004730D8F4242F30E0C901880F991F820F21
:101F7000931F2081DC01AB59BE4F2C932181DC01E2
:101F8000AA59BE4F2C93228189599E4FFC01208370
:101F90004F5F40938301409364010895CF93DF9393
:101FA000EB0149B1E82FF0E0242F30E0082E02C009
:101FB000359527950A94E2F7922F917042954695B0
:101FC0004695437050E041705070440F551F942B5C
:101FD000EA57FE4F208130E0492F50E0B90163708D
:101FE000707046175707C9F0A901440F551F440FD9
:101FF000551F492B408350E04F73507044335105B7
:1020000021F04833510541F402C06FEF01C061E097
:102010006DDE81E0888301C01882DF91CF91089541
:1020200083E48BB908950F931F93CF93DF93EB0154
:10203000182F1770123009F48DC0133040F400913E
:102040008501112371F1113009F08CC00CC01430DE
:1020500009F484C000918501143008F442C01530A1
:1020600009F080C066C0802F87708093850199B188
:10207000929596959695937090FD02C098E001C058
:1020800090E0892B80938501982F9695969596954B
:10209000998329DE8091850183FF64C003FD62C0BE
:1020A0003EC0802F8B708093850199B19295969553
:1020B0009695937090FD02C094E001C090E0892B4A
:1020C00080938501282F2695269530E02170307069
:1020D000288309DE8091850182FF44C002FD42C051
:1020E0001EC0802F8D708093850199B19295969531
:1020F0009695937090FD02C092E001C090E0892B0C
:1021000080938501282F269530E0217030702B8335
:10211000EADD8091850181FF25C001FD23C08FE7A5
:1021200098E3A1E081509040A040E1F700C000009A
:1021300019C00E700093850189B1829586958695A8
:10214000837091E080FD90E0092B009385018FEF73
:10215000CADD08C06E5F7F4F80E003C06C5F7F4FB9
:1021600081E01CDF8091850180FD03C0C10FD11D7E
:102170001882DF91CF911F910F910895982F2AC057
:102180009093E900981739F07091EC002091ED00E0
:102190005091F00003C0242F762F50E021FF19C08A
:1021A0003091EB003E7F3093EB003091ED003D7FAE
:1021B0003093ED003091EB0031603093EB00709381
:1021C000EC002093ED005093F0002091EE0027FFEB
:1021D00008C09F5F9730A0F28F708093E90081E084
:1021E000089580E008958091080487FF13C004C01B
:1021F000809107048823B9F08091E80082FFF8CF2E
:102200008091E8008B778093E8000895809107041F
:10221000882349F08091E80080FFF8CF8091E800A2
:102220008E778093E80008958091E4009091E50016
:1022300045E601C0C9012091EC0020FF23C0209198
:10224000E80020FD15C020910704222399F02530D5
:1022500099F02091EB0025FD11C02091E400309110
:10226000E5002817390739F3415021F784E0089534
:1022700080E0089582E0089583E0089581E0089564
:1022800080E008952091E80022FFDDCFF9CF0F9381
:102290001F93CF93DF9346D04DD0C8EDD0E0888117
:1022A0008F77888388818068888388818F7D888301
:1022B00019BC1092070410920304109205041092A6
:1022C000040400EE10E0F80180818B7F8083888118
:1022D0008160888380E060E042E050DFE1EEF0E082
:1022E00080818E7F8083E2EEF0E080818160808358
:1022F000808188608083F80180818E7F80838881DF
:1023000080618883DF91CF911F910F910895E7ED50
:10231000F0E080818160808384E082BF81E08093EF
:102320000604B5CFE8EDF0E080818E7F80831092C7
:10233000E20008951092DA001092E10008951F92D1
:102340000F920FB60F9211242F933F934F935F93E9
:102350006F937F938F939F93AF93BF93EF93FF936D
:102360008091E10082FF0AC08091E20082FF06C0F6
:102370008091E1008B7F8093E10077D38091DA0038
:1023800080FF1FC08091D80080FF1BC08091DA00C1
:102390008E7F8093DA008091D90080FF0DC080E1AC
:1023A00089BD82E189BD09B400FEFDCF81E0809343
:1023B00007040E942D0705C019BC109207040E9453
:1023C0002E078091E10080FF18C08091E20080FF1D
:1023D00014C08091E2008E7F8093E2008091E20041
:1023E00080618093E2008091D80080628093D80061
:1023F00019BC85E08093070438D38091E10084FF05
:102400002DC08091E20084FF29C080E189BD82E176
:1024100089BD09B400FEFDCF8091D8008F7D8093E7
:10242000D8008091E1008F7E8093E1008091E200EE
:102430008F7E8093E2008091E20081608093E200D1
:1024400080910304882321F48091E30087FF02C078
:1024500084E001C081E08093070407D38091E1000C
:1024600083FF22C08091E20083FF1EC08091E100C3
:10247000877F8093E10082E0809307041092030439
:102480008091E1008E7F8093E1008091E2008E7F59
:102490008093E2008091E20080618093E20080E01E
:1024A00060E042E06BDEE1D2FF91EF91BF91AF912E
:1024B0009F918F917F916F915F914F913F912F915C
:1024C0000F900FBE0F901F901895AF92BF92CF92B2
:1024D000DF92EF92FF921F93CF93DF93EC017B018A
:1024E0006A01A2DE182F8823A9F5C114D10439F09E
:1024F000F60120813181E21AF30AC20FD31FAA2408
:10250000BB2423C08091E80085FD16C08091E800BF
:102510008E778093E800AAD2C114D10449F0F60165
:10252000808191818A0D9B1D9183808315E012C06B
:102530007BDE882351F00DC089918093F1000894CF
:10254000E108F1080894A11CB11CE114F104D1F6D2
:1025500001C0182F812FDF91CF911F91FF90EF9035
:10256000DF90CF90BF90AF900895AF92BF92CF927F
:10257000DF92EF92FF921F93CF93DF93EC017B01E9
:102580006A0152DE182F8823A9F5C114D10439F04D
:10259000F60120813181E21AF30AC20FD31FAA2467
:1025A000BB2423C08091E80085FD16C08091E8001F
:1025B0008B778093E8005AD2C114D10449F0F60118
:1025C000808191818A0D9B1D9183808315E012C0CB
:1025D0002BDE882351F00DC08091F100899308947F
:1025E000E108F1080894A11CB11CE114F104D1F632
:1025F00001C0182F812FDF91CF911F91FF90EF9095
:10260000DF90CF90BF90AF90089540910E0450910D
:102610000F044617570720F4BA01FC0140E03CC004
:1026200061157105D1F74091E8004E774093E800BD
:10263000F4CF80910704882309F444C08530F1F178
:102640008091E80083FD3CC08091E80082FD30C0AD
:102650008091E80080FF20C09091F3008091F2000B
:10266000392F20E090E0822B932B06C041914093BC
:10267000F1006150704001966115710519F08830C4
:102680009105A0F341E08830910509F040E0809188
:10269000E8008E778093E8006115710551F64423B8
:1026A00041F606C080910704882361F0853061F00F
:1026B0008091E80082FFF6CF80E0089583E00895DE
:1026C00081E0089582E0089583E0089540910E042A
:1026D00050910F044617570720F4BA01FC0140E05F
:1026E0003EC061157105D1F74091E8004E774093E7
:1026F000E800F4CF80910704882309F446C08530B0
:1027000009F43FC08091E80083FD3DC08091E8005E
:1027100082FD31C08091E80080FF21C09091F300DC
:102720008091F200392F20E090E0822B932B07C09C
:1027300044914093F10031966150704001966115CB
:10274000710519F08830910598F341E088309105C2
:1027500009F040E08091E8008E778093E8006115F1
:10276000710541F6442331F606C0809107048823A1
:1027700061F0853061F08091E80082FFF6CF80E063
:10278000089583E0089581E0089582E0089583E04C
:1027900008950F931F93CF93DF93CDB7DEB7AC9718
:1027A0000FB6F894DEBF0FBECDBF80E0E8E0F4E0E6
:1027B0009091F10091938F5F8830D1F70E94430789
:1027C0008091E80083FF38C18091080420910904BA
:1027D000253009F484C0263040F42130A1F12130A5
:1027E00070F0233009F028C12EC0283009F4F5C05C
:1027F000293009F404C1263009F01EC194C0803884
:1028000021F0823809F018C108C080910404909129
:102810000504992371F082600CC080910C048F70C4
:102820008093E9009091EB0081E095FF80E01092A9
:10283000E9009091E800977F9093E8008093F10081
:102840001092F100D5C0882319F0823009F0F4C04D
:1028500090E08F719070009729F08230910509F017
:10286000EBC00BC080910A04813009F0E5C0233031
:1028700009F080E0809305042CC080910A0488232D
:1028800041F520910C042F7009F4D6C02093E90083
:102890008091EB0080FF1DC080910904833021F4FA
:1028A0008091EB00806213C08091EB008061809387
:1028B000EB0081E090E002C0880F991F2A95E2F7B3
:1028C0008093EA001092EA008091EB008860809388
:1028D000EB001092E9008091E800877F8CC088238C
:1028E00009F0AAC010910A041F770FB7F8948091DD
:1028F000E800877F8093E80076DC8091E80080FF25
:10290000FCCF8091E3008078812B8093E300806886
:102910008093E300112311F083E001C082E08093F3
:1029200007040FBF89C08058823008F085C08091AD
:102930000A0490910B0423E08C3D9207A9F583E0F3
:102940008C838AE28B835FB7F894DE01139680E074
:1029500090E04EE061E2E42FF0E060935700E491F4
:1029600080FF03C0E295EF704F5FEF702E2F30E0D5
:10297000EA3018F0295C3F4F02C0205D3F4F1396AC
:102980003C932E931297019612968431910519F774
:102990005FBF8091E800877F8093E800CE010396B7
:1029A0006AE270E032DE13C060910C04AE014F5F4A
:1029B0005F4F0E944407BC01009709F43DC080911D
:1029C000E800877F8093E80089819A817FDE80918B
:1029D000E8008B778093E8002FC0803869F58091FC
:1029E000E800877F8093E800809103048093F100E2
:1029F0008091E8008E778093E800F5DB1DC0882386
:102A0000D9F490910A049230B8F48091E800877F5D
:102A10008093E80090930304E6DB8091030488230D
:102A200021F48091E30087FF02C084E001C081E0CF
:102A3000809307040E942F078091E80083FF0AC05B
:102A40008091EB0080628093EB008091E800877FAB
:102A50008093E800AC960FB6F894DEBF0FBECDBFF2
:102A6000DF91CF911F910F9108950895CF93809199
:102A700007048823A9F08091E9008F709091EC0001
:102A800090FF02C0C0E801C0C0E0C82B1092E9006E
:102A90008091E80083FF01C07CDECF70C093E90025
:102AA000CF9108955058BB27AA270ED04DC13ED1D3
:102AB00030F043D120F031F49F3F11F41EF433C1C4
:102AC0000EF4E095E7FB29C1E92F4FD180F3BA1747
:102AD000620773078407950718F071F49EF567C1C4
:102AE0000EF4E0950B2EBA2FA02D0B01B901900129
:102AF0000C01CA01A0011124FF27591B99F0593F6D
:102B000050F4503E68F11A16F040A22F232F342FB4
:102B10004427585FF3CF469537952795A795F04002
:102B20005395C9F77EF41F16BA0B620B730B840B17
:102B3000BAF09150A1F0FF0FBB1F661F771F881FCF
:102B4000C2F70EC0BA0F621F731F841F48F4879527
:102B500077956795B795F7959E3F08F0B3CF939516
:102B6000880F08F09927EE0F9795879508950CD058
:102B7000EBC0E3D040F0DAD030F021F45F3F19F041
:102B8000CCC0511115C1CFC0F0D098F39923C9F32F
:102B90005523B1F3951B550BBB27AA276217730763
:102BA000840738F09F5F5F4F220F331F441FAA1F17
:102BB000A9F333D00E2E3AF0E0E830D091505040D7
:102BC000E695001CCAF729D0FE2F27D0660F771F85
:102BD000881FBB1F261737074807AB07B0E809F067
:102BE000BB0B802DBF01FF2793585F4F2AF09E3FFC
:102BF000510568F092C0DCC05F3FECF3983EDCF317
:102C0000869577956795B795F7959F5FC9F7880F74
:102C1000911D9695879597F90895E1E0660F771FC6
:102C2000881FBB1F621773078407BA0720F0621B57
:102C3000730B840BBA0BEE1F88F7E095089504D050
:102C40006894B111B5C0089598D088F09F5790F05E
:102C5000B92F9927B751A0F0D1F0660F771F881FC1
:102C6000991F1AF0BA95C9F712C0B13081F09FD000
:102C7000B1E008959CC0672F782F8827B85F39F09E
:102C8000B93FCCF3869577956795B395D9F73EF420
:102C900090958095709561957F4F8F4F9F4F0895C8
:102CA000E89409C097FB3EF49095809570956195E6
:102CB0007F4F8F4F9F4F9923A9F0F92F96E9BB279C
:102CC0009395F695879577956795B795F111F8CF18
:102CD000FAF4BB0F11F460FF1BC06F5F7F4F8F4F83
:102CE0009F4F16C0882311F096E911C0772321F079
:102CF0009EE8872F762F05C0662371F096E8862F11
:102D000070E060E02AF09A95660F771F881FDAF767
:102D1000880F9695879597F9089597F99F6780E8AA
:102D200070E060E008959FEF80EC089500240A941D
:102D30001616170618060906089500240A94121696
:102D40001306140605060895092E0394000C11F4C9
:102D5000882352F0BB0F40F4BF2B11F460FF04C076
:102D60006F5F7F4F8F4F9F4F089557FD9058440FCF
:102D7000551F59F05F3F71F04795880F97FB991FDA
:102D800061F09F3F79F08795089512161306140697
:102D9000551FF2CF4695F1DF08C016161706180624
:102DA000991FF1CF86957105610508940895E894FF
:102DB000BB2766277727CB0197F9089566D008F4DB
:102DC0008FEF08950BD0C0CFB1DF28F0B6DF18F039
:102DD000952309F0A2CFA7CF1124EACFC6DFA0F335
:102DE000959FD1F3950F50E0551F629FF001729FA0
:102DF000BB27F00DB11D639FAA27F00DB11DAA1FBF
:102E0000649F6627B00DA11D661F829F2227B00D0B
:102E1000A11D621F739FB00DA11D621F839FA00D96
:102E2000611D221F749F3327A00D611D231F849FE6
:102E3000600D211D822F762F6A2F11249F5750403D
:102E40008AF0E1F088234AF0EE0FFF1FBB1F661FD8
:102E5000771F881F91505040A9F79E3F510570F091
:102E60005CCFA6CF5F3FECF3983EDCF38695779579
:102E70006795B795F795E7959F5FC1F7FE2B880F8C
:102E8000911D9695879597F90895990F0008550F0C
:102E9000AA0BE0E8FEEF16161706E807F907C0F0E0
:102EA00012161306E407F50798F0621B730B840BE8
:102EB000950B39F40A2661F0232B242B252B21F4C2
:102EC00008950A2609F4A140A6958FEF811D811D62
:102ED0000895DC0101C06D9341505040E0F7089522
:042EE000F894FFCF94
:102EE40001000000000000000000000000000000DD
:102EF40000000000000000000000000000000000CE
:102F040000000000000000000000000000000000BD
:102F140000000000000000000000000000000000AD
:102F2400000000000000000000000000000000009D
:102F3400000000000000000000000000000000008D
:102F4400000000000000000000000000000000007D
:102F5400000000000000000000000000000000006D
:00000001FF
