:10000000CFC00000DDC00000DBC00000D9C0000090
:10001000D7C00000D5C00000D3C00000D1C0000090
:10002000CFC00000CDC000002CC30000C9C000003C
:10003000C7C00000C5C00000C3C00000C1C00000B0
:10004000BFC00000BDC00000BBC00000B9C00000C0
:10005000B7C00000B5C00000B3C00000B1C00000D0
:10006000AFC00000ADC00000ABC00000A9C00000E0
:10007000A7C00000A5C00000A3C00000A1C00000F0
:100080009FC000009DC000009BC0000099C0000000
:1000900097C0000095C0000093C0000091C0000010
:1000A0008FC000008DC000008BC000000600FF095B
:1000B00001A1010902150025FF750895C1810209FA
:1000C00003150025FF750895089102C01201100163
:1000D000EF020108501D2160000001020001090229
:1000E0008D00030100C032080B000201010000096D
:1000F00004000000010100000924010001090001C1
:10010000010904010002010300000724010001416C
:100110000006240201010006240202020009240351
:100120000103010201000924030204010101000985
:1001300005010240000100000525010101090582B9
:10014000024000010000052501010309040200022C
:10015000030000000921110100012220000705838E
:10016000030800010705040308000104030904143F
:10017000036E007500200064006500730069006E66
:100180000065000000180341006C00700068006109
:1001900000530070006800650072006500000000F8
:1001A00011241FBECFEFDAE0DEBFCDBF11E0A0E02B
:1001B000B1E001C01D92AD3CB107E1F79ED071C620
:1001C0001FCF9BB19F70982B9BB908959091C80049
:1001D00095FFFCCF8093CE000895FF920F931F935D
:1001E000DF93CF9300D000D0CDB7DEB7FC01808184
:1001F000863049F51181F28003818091C4018430F9
:1002000011F582E08093E900112399F0812F829506
:100210008F7089831A83FB820C83CE01019664E080
:1002200070E040E050E0F1D28091E8008E7780935A
:10023000E8008091C80085FFFCCF812FC7DF8F2D9C
:10024000C5DF802FC3DF0F900F900F900F90CF91DD
:10025000DF911F910F91FF9008950F931F93DF93EC
:10026000CF93CDB7DEB728970FB6F894DEBF0FBE99
:10027000CDBF8091C4018430D1F48093E900809196
:10028000E80082FF14C08091E80085FF0BC08E015A
:100290000F5F1F4FC80168E070E040E050E013D3EB
:1002A000C8019BDF8091E8008B778093E800289657
:1002B0000FB6F894DEBF0FBECDBFCF91DF911F9177
:1002C0000F91089584B7877F84BF88E10FB6F894B3
:1002D00080936000109260000FBE90E080E80FB63F
:1002E000F89480936100909361000FBE8AB1806F93
:1002F0008AB98BB18F708BB9ACC1CF93DF93E0E635
:10030000F1E0C0E0D1E0A0E9B1E0119219921992B8
:100310001D9281E0E039F807C1F7D4DF80E151DFB9
:1003200078948091C90088608093C9001092CD00B4
:100330008FE18093CC0091DF98D5FDCF80EA41CF4B
:1003400080E13FCF1F93CF93DF9383E061EC42E0E6
:10035000B4D0C82F84E060EC42E0AFD0182F82E028
:1003600061E842E3AAD0D0E0212F30E0C223D323BA
:10037000C170D07090E0C823D92381E060E842E3E7
:100380009CD021E030E0209711F420E030E090E0B4
:1003900082239323009711F080E601C080E911DFEA
:1003A000DF91CF911F9108950F931F93DF93CF9308
:1003B000CDB7DEB728970FB6F894DEBF0FBECDBF1E
:1003C0008091C601813019F0893061F514C08091A7
:1003D000C501813A39F58091E800877F8093E80074
:1003E000CE01019668E070E0CCD28091E8008B7776
:1003F0008093E80017C08091C501813299F4809103
:10040000E800877F8093E8008E010F5F1F4FC801CF
:1004100068E070E019D38091E8008E778093E8005F
:10042000C801DBDE28960FB6F894DEBF0FBECDBF45
:10043000CF91DF911F910F910895933089F09430FF
:1004400028F4913059F1923071F505C09132E1F004
:10045000923249F51EC02DE830E0EEEDF0E027C005
:10046000813049F0813018F08230E9F408C0EBE6C1
:10047000F1E0249107C0EFE6F1E0249103C0E5E844
:10048000F1E0249130E013C029E030E0E4E5F1E050
:100490000EC020E230E0ECEAF0E009C022E130E0FA
:1004A000ECECF0E004C020E030E0E0E0F0E0DA0165
:1004B0001196FC93EE93C9010895982F2CC0292F13
:1004C0002F702093E900981739F07091EC0020917B
:1004D000ED005091F00003C0242F762F50E021FF53
:1004E00019C03091EB003E7F3093EB003091ED006E
:1004F0003D7F3093ED003091EB0031603093EB00A5
:100500007093EC002093ED005093F0002091EE00EA
:1005100027FF08C09F5F973090F28F708093E900AB
:1005200081E0089580E008958091C50187FF13C0A0
:1005300004C08091C4018823B9F08091E80082FF53
:10054000F8CF8091E8008B778093E8000895809140
:10055000C401882349F08091E80080FFF8CF8091A2
:10056000E8008E778093E80008958091E4009091F0
:10057000E50044E62091EC0020FF26C02091E80031
:1005800020FD16C02091C4012223A1F02530A1F046
:100590002091EB0025FD12C02091E4003091E50090
:1005A0002817390739F3442359F04150C901E2CFE4
:1005B00080E0089582E0089583E0089581E0089541
:1005C00084E0089580E008952091E80022FFDACFCA
:1005D000F9CF0F931F93CF93DF9346D04DD0C8ED43
:1005E000D0E088818F77888388818068888388813C
:1005F0008F7D888319BC1092C4011092C0011092A3
:10060000C2011092C10100EE10E0F80180818B7FE1
:10061000808388818160888380E060E042E04DDFF4
:10062000E1EEF0E080818E7F8083E2EEF0E0808179
:1006300081608083808188608083F80180818E7FE3
:100640008083888180618883DF91CF911F910F9192
:100650000895E7EDF0E080818160808384E082BFCF
:1006600081E08093C301B5CFE8EDF0E080818E7F1B
:1006700080831092E20008951092DA001092E10057
:1006800008951F920F920FB60F9211242F933F934C
:100690004F935F936F937F938F939F93AF93BF938A
:1006A000EF93FF938091E10082FF0AC08091E20006
:1006B00082FF06C08091E1008B7F8093E100D4D35C
:1006C0008091DA0080FF1DC08091D80080FF19C0A2
:1006D0008091DA008E7F8093DA008091D90080FFCC
:1006E0000CC080E189BD82E189BD09B400FEFDCF67
:1006F00081E08093C40122DE04C019BC1092C401C1
:100700001FDE8091E10080FF18C08091E20080FF31
:1007100014C08091E2008E7F8093E2008091E2001D
:1007200080618093E2008091D80080628093D8003D
:1007300019BC85E08093C40197D38091E10084FFC8
:100740002DC08091E20084FF29C080E189BD82E153
:1007500089BD09B400FEFDCF8091D8008F7D8093C4
:10076000D8008091E1008F7E8093E1008091E200CB
:100770008F7E8093E2008091E20081608093E200AE
:100780008091C001882321F48091E30087FF02C09B
:1007900084E001C081E08093C40166D38091E100D0
:1007A00083FF22C08091E20083FF1EC08091E100A0
:1007B000877F8093E10082E08093C4011092C001A2
:1007C0008091E1008E7F8093E1008091E2008E7F36
:1007D0008093E2008091E20080618093E20080E0FB
:1007E00060E042E06ADE40D3FF91EF91BF91AF91AC
:1007F0009F918F917F916F915F914F913F912F9139
:100800000F900FBE0F901F9018958F929F92BF92DE
:10081000CF92DF92EF92FF920F931F93DF93CF93CC
:100820000F92CDB7DEB7E82E4B018A0199839DDE8A
:10083000B82E99818823C9F5F92E0115110539F0D3
:10084000F80120813181821A930AE20EF31ECC2432
:10085000DD2426C08091E80085FD17C08091E80066
:100860008E778093E80001D30115110551F0F8014E
:10087000808191818C0D9D1D9183808325E0B22E16
:1008800014C073DE882361F00FC0F70181917F01EE
:100890008093F1000894810891080894C11CD11C30
:1008A00081149104B9F601C0B82E8B2D0F90CF9111
:1008B000DF911F910F91FF90EF90DF90CF90BF904D
:1008C0009F908F9008958F929F92BF92CF92DF92C8
:1008D000EF92FF920F931F93DF93CF930F92CDB7B9
:1008E000DEB7E82E4B018A0199833FDEB82E99814D
:1008F0008823C9F5F92E0115110539F0F801208179
:100900003181821A930AE20EF31ECC24DD2426C024
:100910008091E80085FD17C08091E8008B77809377
:10092000E800A3D20115110551F0F80180819181F1
:100930008C0D9D1D9183808345E0B42E14C015DE7F
:10094000882361F00FC08091F100F70181937F014E
:100950000894810891080894C11CD11C8114910449
:10096000B9F601C0B82E8B2D0F90CF91DF911F915A
:100970000F91FF90EF90DF90CF90BF909F908F905E
:100980000895482F592FFA018091CB019091CC0105
:100990008617970718F4BC0140E03CC0611571054B
:1009A000D9F78091E8008E778093E800F5CF8091A9
:1009B000C401882309F444C08530F1F18091E80036
:1009C00083FD3CC08091E80082FD30C08091E8004A
:1009D00080FF20C09091F3008091F200392F20E039
:1009E00090E0822B932B06C041914093F10061501F
:1009F000704001966115710519F088309105A0F3DA
:100A000041E08830910509F040E08091E8008E7760
:100A10008093E8006115710551F6442341F606C044
:100A20008091C401882361F0853061F08091E800F5
:100A300082FFF6CF80E0089583E0089581E0089575
:100A400082E0089583E008956115710559F525C088
:100A50004091C4014423D1F14530A1F14091E80017
:100A600043FD32C04091E80042FFF2CFE82FF92F5A
:100A700007C08091F1008193CF016150704069F00F
:100A8000CF015091F3004091F200352F20E050E06B
:100A9000422B532B4115510561F74091E8004B77EC
:100AA0004093E8006115710599F606C08091C40174
:100AB000882361F0853061F08091E80080FFF6CFF7
:100AC00080E0089583E0089581E0089582E008952C
:100AD00083E00895E82FF92F8091CB019091CC010C
:100AE0008617970718F4BC0140E03EC061157105F8
:100AF000D9F78091E8008E778093E800F5CF809158
:100B0000C401882309F446C0853009F43FC08091B0
:100B1000E80083FD3DC08091E80082FD31C08091F6
:100B2000E80080FF21C09091F3008091F200392FFE
:100B300020E090E0822B932B07C044914093F1007A
:100B400031966150704001966115710519F0883039
:100B5000910598F341E08830910509F040E08091DB
:100B6000E8008E778093E8006115710541F6442313
:100B700031F606C08091C401882361F0853061F0B0
:100B80008091E80082FFF6CF80E0089583E0089529
:100B900081E0089582E0089583E008950F931F9304
:100BA000DF93CF93CDB7DEB7AC970FB6F894DEBF27
:100BB0000FBECDBFE5ECF1E08091F100819321E023
:100BC000ED3CF207C9F7F0DB8091E80083FF33C109
:100BD0008091C5012091C601253009F484C02630DA
:100BE00040F42130A1F1213070F0233009F023C10D
:100BF0002EC0283009F4F1C0293009F400C1263094
:100C000009F019C194C0803821F0823809F013C16D
:100C100008C08091C1019091C201992371F0826056
:100C20000CC08091C9018F708093E9009091EB0016
:100C300081E095FF80E01092E9009091E800977FB5
:100C40009093E8008093F1001092F100D1C08823C6
:100C500019F0823009F0EFC090E08F71907000972A
:100C600029F08230910509F0E6C00BC08091C701E0
:100C7000813009F0E0C0233009F080E08093C201A8
:100C80002CC08091C701882341F52091C9012F70A4
:100C900009F4D1C02093E9008091EB0080FF1DC0D2
:100CA0008091C601833021F48091EB00806213C0F3
:100CB0008091EB0080618093EB0081E090E002C0C6
:100CC000880F991F2A95E2F78093EA001092EA00B4
:100CD0008091EB0088608093EB001092E900809196
:100CE000E800877F88C0882309F0A5C01091C7015C
:100CF0001F770FB7F8948091E800877F8093E80012
:100D000013DC8091E80080FFFCCF8091E3008078C5
:100D1000812B8093E30080688093E300112311F01E
:100D200083E001C082E08093C4010FBF84C080587B
:100D3000823008F080C08091C7019091C80123E003
:100D40008C3D920791F583E08C838AE28B835FB7B9
:100D5000F894DE01159680E090E04EE061E2E42F29
:100D6000F0E060935700E49180FF03C0E295EF70DC
:100D70004F5FEF702E2F30E0EA3018F0295C3F4FC4
:100D800002C0205D3F4F2D933D9301968431910524
:100D900031F75FBF8091E800877F8093E800CE0144
:100DA00003966AE270E0EDDD12C06091C901AE0108
:100DB0004F5F5F4F42DBBC01009709F43CC080915C
:100DC000E800877F8093E80089819A8183DE8091A3
:100DD000E8008B778093E8002EC0803861F5809121
:100DE000E800877F8093E8008091C0018093F10044
:100DF0008091E8008E778093E80096DB1CC0882302
:100E0000D1F49091C7019230B0F48091E800877FCF
:100E10008093E8009093C00187DB8091C001882314
:100E200021F48091E30087FF02C084E001C081E0EB
:100E30008093C40187DA8091E80083FF0AC0809123
:100E4000EB0080628093EB008091E800877F8093C5
:100E5000E800AC960FB6F894DEBF0FBECDBFCF91C1
:100E6000DF911F910F9108950895CF938091C40150
:100E70008823A9F08091E9008F709091EC0090FF99
:100E800002C0C0E801C0C0E0C82B1092E900809108
:100E9000E80083FF01C082DECF70C093E900CF91EC
:060EA0000895F894FFCF55
:00000001FF
